{
    "_format": "hh-sol-artifact-1",
    "contractName": "Streamera",
    "sourceName": "contracts/streamera.sol",
    "abi": [
        {
            "inputs": [
                {
                    "internalType": "address",
                    "name": "_dexRouter",
                    "type": "address"
                },
                {
                    "internalType": "address",
                    "name": "_WETH",
                    "type": "address"
                },
                {
                    "internalType": "uint256",
                    "name": "_platformFee",
                    "type": "uint256"
                }
            ],
            "stateMutability": "nonpayable",
            "type": "constructor"
        },
        {
            "anonymous": false,
            "inputs": [
                {
                    "indexed": false,
                    "internalType": "bool",
                    "name": "status",
                    "type": "bool"
                },
                {
                    "indexed": false,
                    "internalType": "bytes",
                    "name": "callReturn",
                    "type": "bytes"
                }
            ],
            "name": "squidCallStatus",
            "type": "event"
        },
        {
            "inputs": [],
            "name": "WETH",
            "outputs": [
                {
                    "internalType": "address",
                    "name": "",
                    "type": "address"
                }
            ],
            "stateMutability": "view",
            "type": "function"
        },
        {
            "inputs": [],
            "name": "admin",
            "outputs": [
                {
                    "internalType": "address payable",
                    "name": "",
                    "type": "address"
                }
            ],
            "stateMutability": "view",
            "type": "function"
        },
        {
            "inputs": [],
            "name": "dexRouter",
            "outputs": [
                {
                    "internalType": "address",
                    "name": "",
                    "type": "address"
                }
            ],
            "stateMutability": "view",
            "type": "function"
        },
        {
            "inputs": [
                {
                    "internalType": "address",
                    "name": "_router",
                    "type": "address"
                },
                {
                    "internalType": "uint256",
                    "name": "amountIn",
                    "type": "uint256"
                },
                {
                    "internalType": "address[]",
                    "name": "path",
                    "type": "address[]"
                }
            ],
            "name": "getAmountsOut",
            "outputs": [
                {
                    "internalType": "uint256[]",
                    "name": "amounts",
                    "type": "uint256[]"
                }
            ],
            "stateMutability": "view",
            "type": "function"
        },
        {
            "inputs": [
                {
                    "internalType": "address",
                    "name": "_router",
                    "type": "address"
                },
                {
                    "internalType": "address",
                    "name": "tokenA",
                    "type": "address"
                },
                {
                    "internalType": "address",
                    "name": "tokenB",
                    "type": "address"
                }
            ],
            "name": "getPair",
            "outputs": [
                {
                    "internalType": "address",
                    "name": "pair",
                    "type": "address"
                }
            ],
            "stateMutability": "view",
            "type": "function"
        },
        {
            "inputs": [
                {
                    "internalType": "address",
                    "name": "_router",
                    "type": "address"
                },
                {
                    "internalType": "address",
                    "name": "tokenA",
                    "type": "address"
                },
                {
                    "internalType": "address",
                    "name": "tokenB",
                    "type": "address"
                },
                {
                    "internalType": "uint256",
                    "name": "amountIn",
                    "type": "uint256"
                },
                {
                    "internalType": "address",
                    "name": "recipient",
                    "type": "address"
                },
                {
                    "internalType": "bool",
                    "name": "nativeFund",
                    "type": "bool"
                }
            ],
            "name": "localSwap",
            "outputs": [],
            "stateMutability": "payable",
            "type": "function"
        },
        {
            "inputs": [],
            "name": "platformFee",
            "outputs": [
                {
                    "internalType": "uint256",
                    "name": "",
                    "type": "uint256"
                }
            ],
            "stateMutability": "view",
            "type": "function"
        },
        {
            "inputs": [],
            "name": "sendNativeBack",
            "outputs": [],
            "stateMutability": "nonpayable",
            "type": "function"
        },
        {
            "inputs": [
                {
                    "internalType": "address",
                    "name": "token",
                    "type": "address"
                }
            ],
            "name": "sendTokenBack",
            "outputs": [],
            "stateMutability": "nonpayable",
            "type": "function"
        },
        {
            "inputs": [],
            "name": "sendTokenBackAll",
            "outputs": [],
            "stateMutability": "nonpayable",
            "type": "function"
        },
        {
            "inputs": [
                {
                    "internalType": "uint256",
                    "name": "_fee",
                    "type": "uint256"
                }
            ],
            "name": "setPlatformFee",
            "outputs": [],
            "stateMutability": "nonpayable",
            "type": "function"
        },
        {
            "inputs": [
                {
                    "internalType": "address",
                    "name": "_squid",
                    "type": "address"
                },
                {
                    "internalType": "address",
                    "name": "tokenA",
                    "type": "address"
                },
                {
                    "internalType": "bytes",
                    "name": "_payload",
                    "type": "bytes"
                },
                {
                    "internalType": "uint256",
                    "name": "amountIn",
                    "type": "uint256"
                }
            ],
            "name": "squidSwap",
            "outputs": [],
            "stateMutability": "payable",
            "type": "function"
        },
        {
            "stateMutability": "payable",
            "type": "receive"
        }
    ],
    "bytecode": "0x60806040523480156200001157600080fd5b5060405162001ac338038062001ac3833981016040819052620000349162000089565b600380546001600160a01b039485166001600160a01b03199182161790915560019190915560028054929093169116179055620000ca565b80516001600160a01b03811681146200008457600080fd5b919050565b6000806000606084860312156200009f57600080fd5b620000aa846200006c565b9250620000ba602085016200006c565b9150604084015190509250925092565b6119e980620000da6000396000f3fe6080604052600436106100cb5760003560e01c80638cb9205011610074578063ce340a1e1161004e578063ce340a1e1461020f578063e062f4ca14610222578063f851a4401461023757600080fd5b80638cb92050146101a2578063ad5c4648146101c2578063bb7b9c76146101e257600080fd5b806326232a2e116100a557806326232a2e1461014957806361e0b77f1461016d57806378b883f51461018d57600080fd5b80630758d924146100d757806312e8e2c314610114578063176a0cbb1461013657600080fd5b366100d257005b600080fd5b3480156100e357600080fd5b506003546100f7906001600160a01b031681565b6040516001600160a01b0390911681526020015b60405180910390f35b34801561012057600080fd5b5061013461012f3660046113be565b610257565b005b6101346101443660046113fa565b6102bb565b34801561015557600080fd5b5061015f60015481565b60405190815260200161010b565b34801561017957600080fd5b506100f7610188366004611473565b6106e8565b34801561019957600080fd5b506101346107e5565b3480156101ae57600080fd5b506101346101bd3660046114be565b61087c565b3480156101ce57600080fd5b506002546100f7906001600160a01b031681565b3480156101ee57600080fd5b506102026101fd36600461154d565b6109d8565b60405161010b919061160a565b61013461021d36600461164e565b610a6f565b34801561022e57600080fd5b50610134610cc7565b34801561024357600080fd5b506000546100f7906001600160a01b031681565b6000546001600160a01b031633146102b65760405162461bcd60e51b815260206004820152601660248201527f61646d696e3a2077757420646f20796f75207472793f0000000000000000000060448201526064015b60405180910390fd5b600155565b60408051600280825260608201835260009260208301908036833701905050905085816000815181106102f0576102f06116e8565b60200260200101906001600160a01b031690816001600160a01b0316815250508481600181518110610324576103246116e8565b6001600160a01b039092166020928302919091019091015234156103b357349350600260009054906101000a90046001600160a01b03166001600160a01b031663d0e30db0346040518263ffffffff1660e01b81526004016000604051808303818588803b15801561039557600080fd5b505af11580156103a9573d6000803e3d6000fd5b50505050506103bf565b6103bf86333087610f00565b6103c98685611077565b9350846001600160a01b0316866001600160a01b0316146106485760006103f18886846109d8565b905060006104008989896106e8565b905061040d88828861118d565b6000876001600160a01b0316896001600160a01b03161061042e5787610430565b885b9050600080826001600160a01b03168b6001600160a01b0316146104705784600181518110610461576104616116e8565b6020026020010151600061048e565b600085600181518110610485576104856116e8565b60200260200101515b604080516000815260208101918290527f022c0d9f0000000000000000000000000000000000000000000000000000000090915291935091506001600160a01b0385169063022c0d9f906104eb908590859030906024810161175a565b600060405180830381600087803b15801561050557600080fd5b505af1158015610519573d6000803e3d6000fd5b505050506001600160a01b038a1660008181526004602081905260408083205490516370a0823160e01b815230928101929092529192906370a0823190602401602060405180830381865afa158015610576573d6000803e3d6000fd5b505050506040513d601f19601f8201168201806040525081019061059a9190611792565b6105a491906117c1565b90508780156105c057506002546001600160a01b038c81169116145b1561063257600254604051632e1a7d4d60e01b8152600481018390526001600160a01b0390911690632e1a7d4d90602401600060405180830381600087803b15801561060b57600080fd5b505af115801561061f573d6000803e3d6000fd5b5050505061062d89826112d6565b61063d565b61063d8b8a8361118d565b5050505050506106df565b81801561066257506002546001600160a01b038681169116145b156106d457600254604051632e1a7d4d60e01b8152600481018690526001600160a01b0390911690632e1a7d4d90602401600060405180830381600087803b1580156106ad57600080fd5b505af11580156106c1573d6000803e3d6000fd5b505050506106cf83856112d6565b6106df565b6106df85848661118d565b50505050505050565b600080846001600160a01b031663c45a01556040518163ffffffff1660e01b8152600401602060405180830381865afa158015610729573d6000803e3d6000fd5b505050506040513d601f19601f8201168201806040525081019061074d91906117d8565b6040517fe6a439050000000000000000000000000000000000000000000000000000000081526001600160a01b03868116600483015285811660248301529192509082169063e6a4390590604401602060405180830381865afa1580156107b8573d6000803e3d6000fd5b505050506040513d601f19601f820116820180604052508101906107dc91906117d8565b95945050505050565b6000546001600160a01b0316331461083f5760405162461bcd60e51b815260206004820152601660248201527f61646d696e3a2077757420646f20796f75207472793f0000000000000000000060448201526064016102ad565b600080546040516001600160a01b03909116914780156108fc02929091818181858888f19350505050158015610879573d6000803e3d6000fd5b50565b6000546001600160a01b031633146108d65760405162461bcd60e51b815260206004820152601660248201527f61646d696e3a2077757420646f20796f75207472793f0000000000000000000060448201526064016102ad565b6000546040516370a0823160e01b81523060048201526001600160a01b038381169263a9059cbb9291169083906370a0823190602401602060405180830381865afa158015610929573d6000803e3d6000fd5b505050506040513d601f19601f8201168201806040525081019061094d9190611792565b6040517fffffffff0000000000000000000000000000000000000000000000000000000060e085901b1681526001600160a01b03909216600483015260248201526044016020604051808303816000875af11580156109b0573d6000803e3d6000fd5b505050506040513d601f19601f820116820180604052508101906109d491906117f5565b5050565b6040517fd06ca61f0000000000000000000000000000000000000000000000000000000081526060906001600160a01b0385169063d06ca61f90610a229086908690600401611812565b600060405180830381865afa158015610a3f573d6000803e3d6000fd5b505050506040513d6000823e601f3d908101601f19168201604052610a679190810190611869565b949350505050565b346001600160a01b03851673eeeeeeeeeeeeeeeeeeeeeeeeeeeeeeeeeeeeeeee148015610a9c5750600034115b15610b2b57600260009054906101000a90046001600160a01b03166001600160a01b031663d0e30db0836040518263ffffffff1660e01b81526004016000604051808303818588803b158015610af157600080fd5b505af1158015610b05573d6000803e3d6000fd5b50505050508181610b1691906117c1565b6002546001600160a01b031695509050610b37565b610b3785333085610f00565b610b418583611077565b6040517f095ea7b30000000000000000000000000000000000000000000000000000000081526001600160a01b038881166004830152602482018390529193509086169063095ea7b3906044016020604051808303816000875af1158015610bad573d6000803e3d6000fd5b505050506040513d601f19601f82011682018060405250810190610bd191906117f5565b50600080876001600160a01b0316838787604051610bf09291906118fa565b60006040518083038185875af1925050503d8060008114610c2d576040519150601f19603f3d011682016040523d82523d6000602084013e610c32565b606091505b50915091507f4f984963af7686d3af40e42f58209b7890a6bd6eba9eb8ef6d10e1845bdf71688282604051610c6892919061190a565b60405180910390a181610cbd5760405162461bcd60e51b815260206004820152601860248201527f537175696420726f757465722063616c6c206661696c6564000000000000000060448201526064016102ad565b5050505050505050565b6000546001600160a01b03163314610d215760405162461bcd60e51b815260206004820152601660248201527f61646d696e3a2077757420646f20796f75207472793f0000000000000000000060448201526064016102ad565b60005b600554811015610dff57600060058281548110610d4357610d436116e8565b6000918252602090912001546003546002546040516370a0823160e01b81523060048201526001600160a01b039384169450610dd593928316928592169082906370a0823190602401602060405180830381865afa158015610da9573d6000803e3d6000fd5b505050506040513d601f19601f82011682018060405250810190610dcd9190611792565b3060006102bb565b6001600160a01b031660009081526004602052604081205580610df781611925565b915050610d24565b506002546000546040516370a0823160e01b81523060048201526001600160a01b039283169263a9059cbb92169083906370a0823190602401602060405180830381865afa158015610e55573d6000803e3d6000fd5b505050506040513d601f19601f82011682018060405250810190610e799190611792565b6040517fffffffff0000000000000000000000000000000000000000000000000000000060e085901b1681526001600160a01b03909216600483015260248201526044016020604051808303816000875af1158015610edc573d6000803e3d6000fd5b505050506040513d601f19601f8201168201806040525081019061087991906117f5565b604080516001600160a01b0385811660248301528481166044830152606480830185905283518084039091018152608490920183526020820180517bffffffffffffffffffffffffffffffffffffffffffffffffffffffff167f23b872dd000000000000000000000000000000000000000000000000000000001790529151600092839290881691610f92919061193e565b6000604051808303816000865af19150503d8060008114610fcf576040519150601f19603f3d011682016040523d82523d6000602084013e610fd4565b606091505b5091509150818015610ffe575080511580610ffe575080806020019051810190610ffe91906117f5565b61106f5760405162461bcd60e51b8152602060048201526024808201527f5472616e7366657248656c7065723a205452414e534645525f46524f4d5f464160448201527f494c45440000000000000000000000000000000000000000000000000000000060648201526084016102ad565b505050505050565b6001600160a01b03821660009081526004602052604081206001015460ff161580156110b157506002546001600160a01b03848116911614155b15611134576005805460018082019092557f036b6384b5eca791c62761152d0c79bb0604c104a5fb6f4eb0703f3154bb3db00180547fffffffffffffffffffffffff0000000000000000000000000000000000000000166001600160a01b03861690811790915560009081526004602052604090208101805460ff191690911790555b6000606460015484611146919061195a565b6111509190611979565b6001600160a01b03851660009081526004602052604081208054929350839290919061117d90849061199b565b90915550610a67905081846117c1565b604080516001600160a01b038481166024830152604480830185905283518084039091018152606490920183526020820180517bffffffffffffffffffffffffffffffffffffffffffffffffffffffff167fa9059cbb000000000000000000000000000000000000000000000000000000001790529151600092839290871691611217919061193e565b6000604051808303816000865af19150503d8060008114611254576040519150601f19603f3d011682016040523d82523d6000602084013e611259565b606091505b509150915081801561128357508051158061128357508080602001905181019061128391906117f5565b6112cf5760405162461bcd60e51b815260206004820152601f60248201527f5472616e7366657248656c7065723a205452414e534645525f4641494c45440060448201526064016102ad565b5050505050565b604080516000808252602082019092526001600160a01b038416908390604051611300919061193e565b60006040518083038185875af1925050503d806000811461133d576040519150601f19603f3d011682016040523d82523d6000602084013e611342565b606091505b50509050806113b95760405162461bcd60e51b815260206004820152602360248201527f5472616e7366657248656c7065723a204554485f5452414e534645525f46414960448201527f4c4544000000000000000000000000000000000000000000000000000000000060648201526084016102ad565b505050565b6000602082840312156113d057600080fd5b5035919050565b6001600160a01b038116811461087957600080fd5b801515811461087957600080fd5b60008060008060008060c0878903121561141357600080fd5b863561141e816113d7565b9550602087013561142e816113d7565b9450604087013561143e816113d7565b9350606087013592506080870135611455816113d7565b915060a0870135611465816113ec565b809150509295509295509295565b60008060006060848603121561148857600080fd5b8335611493816113d7565b925060208401356114a3816113d7565b915060408401356114b3816113d7565b809150509250925092565b6000602082840312156114d057600080fd5b81356114db816113d7565b9392505050565b634e487b7160e01b600052604160045260246000fd5b604051601f8201601f1916810167ffffffffffffffff81118282101715611521576115216114e2565b604052919050565b600067ffffffffffffffff821115611543576115436114e2565b5060051b60200190565b60008060006060848603121561156257600080fd5b833561156d816113d7565b92506020848101359250604085013567ffffffffffffffff81111561159157600080fd5b8501601f810187136115a257600080fd5b80356115b56115b082611529565b6114f8565b81815260059190911b820183019083810190898311156115d457600080fd5b928401925b828410156115fb5783356115ec816113d7565b825292840192908401906115d9565b80955050505050509250925092565b6020808252825182820181905260009190848201906040850190845b8181101561164257835183529284019291840191600101611626565b50909695505050505050565b60008060008060006080868803121561166657600080fd5b8535611671816113d7565b94506020860135611681816113d7565b9350604086013567ffffffffffffffff8082111561169e57600080fd5b818801915088601f8301126116b257600080fd5b8135818111156116c157600080fd5b8960208285010111156116d357600080fd5b96999598505060200195606001359392505050565b634e487b7160e01b600052603260045260246000fd5b60005b83811015611719578181015183820152602001611701565b83811115611728576000848401525b50505050565b600081518084526117468160208601602086016116fe565b601f01601f19169290920160200192915050565b8481528360208201526001600160a01b0383166040820152608060608201526000611788608083018461172e565b9695505050505050565b6000602082840312156117a457600080fd5b5051919050565b634e487b7160e01b600052601160045260246000fd5b6000828210156117d3576117d36117ab565b500390565b6000602082840312156117ea57600080fd5b81516114db816113d7565b60006020828403121561180757600080fd5b81516114db816113ec565b6000604082018483526020604081850152818551808452606086019150828701935060005b8181101561185c5784516001600160a01b031683529383019391830191600101611837565b5090979650505050505050565b6000602080838503121561187c57600080fd5b825167ffffffffffffffff81111561189357600080fd5b8301601f810185136118a457600080fd5b80516118b26115b082611529565b81815260059190911b820183019083810190878311156118d157600080fd5b928401925b828410156118ef578351825292840192908401906118d6565b979650505050505050565b8183823760009101908152919050565b8215158152604060208201526000610a67604083018461172e565b600060018201611937576119376117ab565b5060010190565b600082516119508184602087016116fe565b9190910192915050565b6000816000190483118215151615611974576119746117ab565b500290565b60008261199657634e487b7160e01b600052601260045260246000fd5b500490565b600082198211156119ae576119ae6117ab565b50019056fea2646970667358221220ad6799ab52af7b64b24c1cfd918f3fe3c4ece4379ea19dd2558492122319964c64736f6c634300080e0033",
    "linkReferences": {},
    "deployedLinkReferences": {}
}