{
    "_format": "hh-sol-artifact-1",
    "contractName": "Streamera",
    "sourceName": "contracts/streamera.sol",
    "abi": [
        {
            "inputs": [
                {
                    "internalType": "address",
                    "name": "_dexRouter",
                    "type": "address"
                },
                {
                    "internalType": "address",
                    "name": "_WETH",
                    "type": "address"
                },
                {
                    "internalType": "uint256",
                    "name": "_platformFee",
                    "type": "uint256"
                }
            ],
            "stateMutability": "nonpayable",
            "type": "constructor"
        },
        {
            "anonymous": false,
            "inputs": [
                {
                    "indexed": false,
                    "internalType": "bool",
                    "name": "status",
                    "type": "bool"
                },
                {
                    "indexed": false,
                    "internalType": "bytes",
                    "name": "callReturn",
                    "type": "bytes"
                }
            ],
            "name": "squidCallStatus",
            "type": "event"
        },
        {
            "inputs": [],
            "name": "WETH",
            "outputs": [
                {
                    "internalType": "address",
                    "name": "",
                    "type": "address"
                }
            ],
            "stateMutability": "view",
            "type": "function"
        },
        {
            "inputs": [],
            "name": "admin",
            "outputs": [
                {
                    "internalType": "address payable",
                    "name": "",
                    "type": "address"
                }
            ],
            "stateMutability": "view",
            "type": "function"
        },
        {
            "inputs": [],
            "name": "dexRouter",
            "outputs": [
                {
                    "internalType": "address",
                    "name": "",
                    "type": "address"
                }
            ],
            "stateMutability": "view",
            "type": "function"
        },
        {
            "inputs": [
                {
                    "internalType": "address",
                    "name": "_router",
                    "type": "address"
                },
                {
                    "internalType": "uint256",
                    "name": "amountIn",
                    "type": "uint256"
                },
                {
                    "internalType": "address[]",
                    "name": "path",
                    "type": "address[]"
                }
            ],
            "name": "getAmountsOut",
            "outputs": [
                {
                    "internalType": "uint256[]",
                    "name": "amounts",
                    "type": "uint256[]"
                }
            ],
            "stateMutability": "view",
            "type": "function"
        },
        {
            "inputs": [
                {
                    "internalType": "address",
                    "name": "_router",
                    "type": "address"
                },
                {
                    "internalType": "address",
                    "name": "tokenA",
                    "type": "address"
                },
                {
                    "internalType": "address",
                    "name": "tokenB",
                    "type": "address"
                }
            ],
            "name": "getPair",
            "outputs": [
                {
                    "internalType": "address",
                    "name": "pair",
                    "type": "address"
                }
            ],
            "stateMutability": "view",
            "type": "function"
        },
        {
            "inputs": [
                {
                    "internalType": "address",
                    "name": "_router",
                    "type": "address"
                },
                {
                    "internalType": "address",
                    "name": "tokenA",
                    "type": "address"
                },
                {
                    "internalType": "address",
                    "name": "tokenB",
                    "type": "address"
                },
                {
                    "internalType": "uint256",
                    "name": "amountIn",
                    "type": "uint256"
                },
                {
                    "internalType": "address",
                    "name": "recipient",
                    "type": "address"
                },
                {
                    "internalType": "bool",
                    "name": "nativeFund",
                    "type": "bool"
                }
            ],
            "name": "localSwap",
            "outputs": [],
            "stateMutability": "payable",
            "type": "function"
        },
        {
            "inputs": [],
            "name": "platformFee",
            "outputs": [
                {
                    "internalType": "uint256",
                    "name": "",
                    "type": "uint256"
                }
            ],
            "stateMutability": "view",
            "type": "function"
        },
        {
            "inputs": [],
            "name": "sendNativeBack",
            "outputs": [],
            "stateMutability": "nonpayable",
            "type": "function"
        },
        {
            "inputs": [
                {
                    "internalType": "address",
                    "name": "token",
                    "type": "address"
                }
            ],
            "name": "sendTokenBack",
            "outputs": [],
            "stateMutability": "nonpayable",
            "type": "function"
        },
        {
            "inputs": [],
            "name": "sendTokenBackAll",
            "outputs": [],
            "stateMutability": "nonpayable",
            "type": "function"
        },
        {
            "inputs": [
                {
                    "internalType": "uint256",
                    "name": "_fee",
                    "type": "uint256"
                }
            ],
            "name": "setPlatformFee",
            "outputs": [],
            "stateMutability": "nonpayable",
            "type": "function"
        },
        {
            "inputs": [
                {
                    "internalType": "address",
                    "name": "_squid",
                    "type": "address"
                },
                {
                    "internalType": "address",
                    "name": "tokenA",
                    "type": "address"
                },
                {
                    "internalType": "bytes",
                    "name": "_payload",
                    "type": "bytes"
                },
                {
                    "internalType": "uint256",
                    "name": "amountIn",
                    "type": "uint256"
                }
            ],
            "name": "squidSwap",
            "outputs": [],
            "stateMutability": "payable",
            "type": "function"
        },
        {
            "stateMutability": "payable",
            "type": "receive"
        }
    ],
    "bytecode": "0x60806040523480156200001157600080fd5b5060405162001b4838038062001b48833981016040819052620000349162000089565b600380546001600160a01b039485166001600160a01b03199182161790915560019190915560028054929093169116179055620000ca565b80516001600160a01b03811681146200008457600080fd5b919050565b6000806000606084860312156200009f57600080fd5b620000aa846200006c565b9250620000ba602085016200006c565b9150604084015190509250925092565b611a6e80620000da6000396000f3fe6080604052600436106100cb5760003560e01c80638cb9205011610074578063ce340a1e1161004e578063ce340a1e1461020f578063e062f4ca14610222578063f851a4401461023757600080fd5b80638cb92050146101a2578063ad5c4648146101c2578063bb7b9c76146101e257600080fd5b806326232a2e116100a557806326232a2e1461014957806361e0b77f1461016d57806378b883f51461018d57600080fd5b80630758d924146100d757806312e8e2c314610114578063176a0cbb1461013657600080fd5b366100d257005b600080fd5b3480156100e357600080fd5b506003546100f7906001600160a01b031681565b6040516001600160a01b0390911681526020015b60405180910390f35b34801561012057600080fd5b5061013461012f366004611441565b610257565b005b61013461014436600461147d565b6102bb565b34801561015557600080fd5b5061015f60015481565b60405190815260200161010b565b34801561017957600080fd5b506100f76101883660046114f6565b6106f7565b34801561019957600080fd5b50610134610812565b3480156101ae57600080fd5b506101346101bd366004611541565b6108a9565b3480156101ce57600080fd5b506002546100f7906001600160a01b031681565b3480156101ee57600080fd5b506102026101fd3660046115d0565b610a23565b60405161010b919061168d565b61013461021d3660046116d1565b610ac9565b34801561022e57600080fd5b50610134610d1d565b34801561024357600080fd5b506000546100f7906001600160a01b031681565b6000546001600160a01b031633146102b65760405162461bcd60e51b815260206004820152601660248201527f61646d696e3a2077757420646f20796f75207472793f0000000000000000000060448201526064015b60405180910390fd5b600155565b60408051600280825260608201835260009260208301908036833701905050905085816000815181106102f0576102f061176b565b60200260200101906001600160a01b031690816001600160a01b03168152505084816001815181106103245761032461176b565b6001600160a01b039092166020928302919091019091015234156103b357349350600260009054906101000a90046001600160a01b03166001600160a01b031663d0e30db0346040518263ffffffff1660e01b81526004016000604051808303818588803b15801561039557600080fd5b505af11580156103a9573d6000803e3d6000fd5b50505050506103bf565b6103bf86333087610f83565b6103c986856110fa565b9350846001600160a01b0316866001600160a01b0316146106575760006103f1888684610a23565b905060006104008989896106f7565b905061040d888288611210565b6000876001600160a01b0316896001600160a01b03161061042e5787610430565b885b9050600080826001600160a01b03168b6001600160a01b03161461047057846001815181106104615761046161176b565b6020026020010151600061048e565b6000856001815181106104855761048561176b565b60200260200101515b604080516000815260208101918290527f022c0d9f0000000000000000000000000000000000000000000000000000000090915291935091506001600160a01b0385169063022c0d9f906104eb90859085903090602481016117dd565b600060405180830381600087803b15801561050557600080fd5b505af1158015610519573d6000803e3d6000fd5b505050506001600160a01b038a1660008181526004602081905260408083205490516370a0823160e01b815230928101929092529192906370a082319060240160206040518083038186803b15801561057157600080fd5b505afa158015610585573d6000803e3d6000fd5b505050506040513d601f19601f820116820180604052508101906105a99190611815565b6105b39190611844565b90508780156105cf57506002546001600160a01b038c81169116145b1561064157600254604051632e1a7d4d60e01b8152600481018390526001600160a01b0390911690632e1a7d4d90602401600060405180830381600087803b15801561061a57600080fd5b505af115801561062e573d6000803e3d6000fd5b5050505061063c8982611359565b61064c565b61064c8b8a83611210565b5050505050506106ee565b81801561067157506002546001600160a01b038681169116145b156106e357600254604051632e1a7d4d60e01b8152600481018690526001600160a01b0390911690632e1a7d4d90602401600060405180830381600087803b1580156106bc57600080fd5b505af11580156106d0573d6000803e3d6000fd5b505050506106de8385611359565b6106ee565b6106ee858486611210565b50505050505050565b600080846001600160a01b031663c45a01556040518163ffffffff1660e01b815260040160206040518083038186803b15801561073357600080fd5b505afa158015610747573d6000803e3d6000fd5b505050506040513d601f19601f8201168201806040525081019061076b919061185b565b6040517fe6a439050000000000000000000000000000000000000000000000000000000081526001600160a01b03868116600483015285811660248301529192509082169063e6a439059060440160206040518083038186803b1580156107d157600080fd5b505afa1580156107e5573d6000803e3d6000fd5b505050506040513d601f19601f82011682018060405250810190610809919061185b565b95945050505050565b6000546001600160a01b0316331461086c5760405162461bcd60e51b815260206004820152601660248201527f61646d696e3a2077757420646f20796f75207472793f0000000000000000000060448201526064016102ad565b600080546040516001600160a01b03909116914780156108fc02929091818181858888f193505050501580156108a6573d6000803e3d6000fd5b50565b6000546001600160a01b031633146109035760405162461bcd60e51b815260206004820152601660248201527f61646d696e3a2077757420646f20796f75207472793f0000000000000000000060448201526064016102ad565b6000546040516370a0823160e01b81523060048201526001600160a01b038381169263a9059cbb9291169083906370a082319060240160206040518083038186803b15801561095157600080fd5b505afa158015610965573d6000803e3d6000fd5b505050506040513d601f19601f820116820180604052508101906109899190611815565b6040517fffffffff0000000000000000000000000000000000000000000000000000000060e085901b1681526001600160a01b0390921660048301526024820152604401602060405180830381600087803b1580156109e757600080fd5b505af11580156109fb573d6000803e3d6000fd5b505050506040513d601f19601f82011682018060405250810190610a1f9190611878565b5050565b6040517fd06ca61f0000000000000000000000000000000000000000000000000000000081526060906001600160a01b0385169063d06ca61f90610a6d9086908690600401611895565b60006040518083038186803b158015610a8557600080fd5b505afa158015610a99573d6000803e3d6000fd5b505050506040513d6000823e601f3d908101601f19168201604052610ac191908101906118ec565b949350505050565b6001600160a01b03841673eeeeeeeeeeeeeeeeeeeeeeeeeeeeeeeeeeeeeeee148015610af55750600034115b15610b7757600260009054906101000a90046001600160a01b03166001600160a01b031663d0e30db0826040518263ffffffff1660e01b81526004016000604051808303818588803b158015610b4a57600080fd5b505af1158015610b5e573d6000803e3d6000fd5b50506002546001600160a01b03169650610b8392505050565b610b8384333084610f83565b610b8d84826110fa565b6040517f095ea7b30000000000000000000000000000000000000000000000000000000081526001600160a01b038781166004830152602482018390529192509085169063095ea7b390604401602060405180830381600087803b158015610bf457600080fd5b505af1158015610c08573d6000803e3d6000fd5b505050506040513d601f19601f82011682018060405250810190610c2c9190611878565b50600080866001600160a01b0316348686604051610c4b92919061197d565b60006040518083038185875af1925050503d8060008114610c88576040519150601f19603f3d011682016040523d82523d6000602084013e610c8d565b606091505b50915091507f4f984963af7686d3af40e42f58209b7890a6bd6eba9eb8ef6d10e1845bdf71688282604051610cc392919061198d565b60405180910390a16001821515146106ee5760405162461bcd60e51b815260206004820152601860248201527f537175696420726f757465722063616c6c206661696c6564000000000000000060448201526064016102ad565b6000546001600160a01b03163314610d775760405162461bcd60e51b815260206004820152601660248201527f61646d696e3a2077757420646f20796f75207472793f0000000000000000000060448201526064016102ad565b60005b600554811015610e6457600060058281548110610d9957610d9961176b565b6000918252602090912001546003546002546040516370a0823160e01b81523060048201526001600160a01b039384169450610e3a93928316928592169082906370a082319060240160206040518083038186803b158015610dfa57600080fd5b505afa158015610e0e573d6000803e3d6000fd5b505050506040513d601f19601f82011682018060405250810190610e329190611815565b3060006102bb565b6001600160a01b031660009081526004602052604081205580610e5c816119a8565b915050610d7a565b506002546000546040516370a0823160e01b81523060048201526001600160a01b039283169263a9059cbb92169083906370a082319060240160206040518083038186803b158015610eb557600080fd5b505afa158015610ec9573d6000803e3d6000fd5b505050506040513d601f19601f82011682018060405250810190610eed9190611815565b6040517fffffffff0000000000000000000000000000000000000000000000000000000060e085901b1681526001600160a01b0390921660048301526024820152604401602060405180830381600087803b158015610f4b57600080fd5b505af1158015610f5f573d6000803e3d6000fd5b505050506040513d601f19601f820116820180604052508101906108a69190611878565b604080516001600160a01b0385811660248301528481166044830152606480830185905283518084039091018152608490920183526020820180517bffffffffffffffffffffffffffffffffffffffffffffffffffffffff167f23b872dd00000000000000000000000000000000000000000000000000000000179052915160009283929088169161101591906119c3565b6000604051808303816000865af19150503d8060008114611052576040519150601f19603f3d011682016040523d82523d6000602084013e611057565b606091505b50915091508180156110815750805115806110815750808060200190518101906110819190611878565b6110f25760405162461bcd60e51b8152602060048201526024808201527f5472616e7366657248656c7065723a205452414e534645525f46524f4d5f464160448201527f494c45440000000000000000000000000000000000000000000000000000000060648201526084016102ad565b505050505050565b6001600160a01b03821660009081526004602052604081206001015460ff1615801561113457506002546001600160a01b03848116911614155b156111b7576005805460018082019092557f036b6384b5eca791c62761152d0c79bb0604c104a5fb6f4eb0703f3154bb3db00180547fffffffffffffffffffffffff0000000000000000000000000000000000000000166001600160a01b03861690811790915560009081526004602052604090208101805460ff191690911790555b60006064600154846111c991906119df565b6111d391906119fe565b6001600160a01b038516600090815260046020526040812080549293508392909190611200908490611a20565b90915550610ac190508184611844565b604080516001600160a01b038481166024830152604480830185905283518084039091018152606490920183526020820180517bffffffffffffffffffffffffffffffffffffffffffffffffffffffff167fa9059cbb00000000000000000000000000000000000000000000000000000000179052915160009283929087169161129a91906119c3565b6000604051808303816000865af19150503d80600081146112d7576040519150601f19603f3d011682016040523d82523d6000602084013e6112dc565b606091505b50915091508180156113065750805115806113065750808060200190518101906113069190611878565b6113525760405162461bcd60e51b815260206004820152601f60248201527f5472616e7366657248656c7065723a205452414e534645525f4641494c45440060448201526064016102ad565b5050505050565b604080516000808252602082019092526001600160a01b03841690839060405161138391906119c3565b60006040518083038185875af1925050503d80600081146113c0576040519150601f19603f3d011682016040523d82523d6000602084013e6113c5565b606091505b505090508061143c5760405162461bcd60e51b815260206004820152602360248201527f5472616e7366657248656c7065723a204554485f5452414e534645525f46414960448201527f4c4544000000000000000000000000000000000000000000000000000000000060648201526084016102ad565b505050565b60006020828403121561145357600080fd5b5035919050565b6001600160a01b03811681146108a657600080fd5b80151581146108a657600080fd5b60008060008060008060c0878903121561149657600080fd5b86356114a18161145a565b955060208701356114b18161145a565b945060408701356114c18161145a565b93506060870135925060808701356114d88161145a565b915060a08701356114e88161146f565b809150509295509295509295565b60008060006060848603121561150b57600080fd5b83356115168161145a565b925060208401356115268161145a565b915060408401356115368161145a565b809150509250925092565b60006020828403121561155357600080fd5b813561155e8161145a565b9392505050565b634e487b7160e01b600052604160045260246000fd5b604051601f8201601f1916810167ffffffffffffffff811182821017156115a4576115a4611565565b604052919050565b600067ffffffffffffffff8211156115c6576115c6611565565b5060051b60200190565b6000806000606084860312156115e557600080fd5b83356115f08161145a565b92506020848101359250604085013567ffffffffffffffff81111561161457600080fd5b8501601f8101871361162557600080fd5b8035611638611633826115ac565b61157b565b81815260059190911b8201830190838101908983111561165757600080fd5b928401925b8284101561167e57833561166f8161145a565b8252928401929084019061165c565b80955050505050509250925092565b6020808252825182820181905260009190848201906040850190845b818110156116c5578351835292840192918401916001016116a9565b50909695505050505050565b6000806000806000608086880312156116e957600080fd5b85356116f48161145a565b945060208601356117048161145a565b9350604086013567ffffffffffffffff8082111561172157600080fd5b818801915088601f83011261173557600080fd5b81358181111561174457600080fd5b89602082850101111561175657600080fd5b96999598505060200195606001359392505050565b634e487b7160e01b600052603260045260246000fd5b60005b8381101561179c578181015183820152602001611784565b838111156117ab576000848401525b50505050565b600081518084526117c9816020860160208601611781565b601f01601f19169290920160200192915050565b8481528360208201526001600160a01b038316604082015260806060820152600061180b60808301846117b1565b9695505050505050565b60006020828403121561182757600080fd5b5051919050565b634e487b7160e01b600052601160045260246000fd5b6000828210156118565761185661182e565b500390565b60006020828403121561186d57600080fd5b815161155e8161145a565b60006020828403121561188a57600080fd5b815161155e8161146f565b6000604082018483526020604081850152818551808452606086019150828701935060005b818110156118df5784516001600160a01b0316835293830193918301916001016118ba565b5090979650505050505050565b600060208083850312156118ff57600080fd5b825167ffffffffffffffff81111561191657600080fd5b8301601f8101851361192757600080fd5b8051611935611633826115ac565b81815260059190911b8201830190838101908783111561195457600080fd5b928401925b8284101561197257835182529284019290840190611959565b979650505050505050565b8183823760009101908152919050565b8215158152604060208201526000610ac160408301846117b1565b60006000198214156119bc576119bc61182e565b5060010190565b600082516119d5818460208701611781565b9190910192915050565b60008160001904831182151516156119f9576119f961182e565b500290565b600082611a1b57634e487b7160e01b600052601260045260246000fd5b500490565b60008219821115611a3357611a3361182e565b50019056fea26469706673582212205bcf60ed8f63f447d6cbe8f5f2e485b9a59973113c2f73ace0a1613050c8f9be64736f6c63430008090033",
    "linkReferences": {},
    "deployedLinkReferences": {}
}